S01D0000426F742053637269707420565220636F6E74726F6C2E7372656364
S11300000C9472000C9494000C9494000C9494003E
S11300100C9494000C9475020C9450020C9494006B
S11300200C9494000C9494000C9494000C949400FC
S11300300C9494000C9494000C9494000C949400EC
S11300400C9494000C9494000C9494000C949400DC
S11300500C9494000C9494000C9494000C949400CC
S11300600C9494000C9494000C9494000C949400BC
S11300700C9494000C9494000C9494000C949400AC
S11300800C9494000C9494000C9494000C9494009C
S11300900C9494000C9494000C9494000C9494008C
S11300A00C9494000C9494000C9494000C9494007C
S11300B00C9494000C9494000C9494000C9494006C
S11300C00C9494000C9494000C9494000C9494005C
S11300D00C9494000C9494000C9494000C9494004C
S11300E00C94940011241FBECFEFD1E2DEBFCDBF2C
S11300F000E00CBF12E0A0E0B2E0E8E3F5E200E0CB
S11301000BBF02C007900D92A030B107D9F71BBEF8
S113011016E0A0E0B2E001C01D92A937B107E1F7F3
S11301200E94A8100C949A120C94000086E69EE09B
S11301300197F1F700004098419880E388B9429A0A
S1130140EFEFF7E43197F1F700C000004298E6E6DC
S1130150FEE03197F1F700004098419888B9429A3F
S1130160EFEFF7E43197F1F700C000004298E6E6BC
S1130170FEE03197F1F700004098419888B9429A1F
S11301808FEF97E40197F1F700C000004298E6E68C
S1130190FEE03197F1F700004098419880E288B979
S11301A0429A8FEF97E40197F1F700C0000042985C
S11301B0089598B19F7098B998B1282F207F922BF9
S11301C098B940984198429AEFEFF7E43197F1F7E4
S11301D000C00000429898B19F7098B998B1829578
S11301E0807F892B88B940984198429A8FEF97E491
S11301F00197F1F700C00000429808950E9496000C
S113020086E69EE00197F1F7000088E20E94D9009B
S113021081E00E94D90086E00E94D9008EE00E940D
S1130220D90080E80E94D900089598B19F7098B9C8
S113023098B1282F207F922B98B9409A4198429ADE
S1130240EFEFF7E43197F1F700C00000429898B15E
S11302509F7098B998B18295807F892B88B9409A0C
S11302604198429A8FEF97E40197F1F700C000009C
S11302704298089580E80E94D9000895CF93DF93AF
S1130280EC018881882331F021960E94150189911F
S11302908823D9F7DF91CF910895823079F08330A4
S11302A018F48130C9F405C0833069F08430A1F4B6
S11302B00FC0862F81580E94D9000895862F81543B
S11302C00E94D9000895862F8D560E94D900089562
S11302D0862F8D520E94D90008950F931F93CF93B8
S11302E0DF938A01E901882311F0662319F40E943F
S11302F03A0102C00E944D01C530D10571F4C80114
S113030060E177E20E948612CB01C09690937B0253
S113031080937A020E94150103C0C430D105B9F458
S1130320C80168EE73E00E948612CB0170937D02CF
S113033060937C026AE070E00E948612C0969093FB
S11303406C0680936B060E94150181E001C080E079
S1130350C330D10511F08130B1F4C80164E670E016
S11303600E948612CB0170937D0260937C026AE046
S113037070E00E948612C09690936606809365068C
S11303800E94150181E0C230D10511F08130B1F431
S11303902AE030E0C801B9010E948612CB017093B3
S11303A07D0260937C02B9010E948612C0969093EC
S11303B08802809387020E94150181E0C130D10533
S11303C011F0813061F4C8016AE070E00E94861285
S11303D0C09690936A06809369060E941501C63000
S11303E0D1051CF085E40E941501DF91CF911F9186
S11303F00F91089581B18F6081B982B1807F82B9F4
S1130400EAE0F1E0808188618083EBE0F1E08081C3
S11304108861808308953B9A4398089587B1876FD4
S113042087B988B1807888B90895259A2D9A089556
S1130430269A2E9A0895279A2F9A08956C98749A5A
S113044008956D98759A089510BA11BA109207011B
S11304501092080108950E94FA010E9424020E9449
S11304601E020E9421020E940E020E941B020E9490
S113047018020E9415020E940B020895F894EAE6FD
S1130480F0E0808182608083EC9A78940895F894F7
S1130490EAE6F0E0808188608083ED9A789408959C
S11304A01F920F920FB60F9211248F939F93AF93C5
S11304B0BF9380910C0290910D02A0910E02B09115
S11304C00F020196A11DB11D80930C0290930D02A1
S11304D0A0930E02B0930F02BF91AF919F918F91A1
S11304E00F900FBE0F901F9018951F920F920FB68A
S11304F00F9211248F939F93AF93BF938091100217
S113050090911102A0911202B09113020196A11DC3
S1130510B11D8093100290931102A0931202B09324
S11305201302BF91AF919F918F910F900FBE0F90C7
S11305301F90189592B1907F8F70982B92B908955F
S113054086E00E949A02089585E00E949A02089526
S11305508AE00E949A02089584E00E949A02089513
S113056082E00E949A02089580E00E949A0208950F
S113057089E00E949A0208950F931F93CF93BC01C0
S113058080E090E00E94D41128E431EE42E850E487
S11305900E9440110E94A811DC01CB01A0E0B0E050
S11305A010920C0210920D0210920E0210920F0281
S11305B01092100210921102109212021092130261
S11305C0F1E0C0E040910C0250910D0260910E02E6
S11305D070910F02009110021091110220911202E9
S11305E030911302EF2F481759076A077B0708F465
S11305F0EC2FEE2349F44F2F081719072A073B075E
S113060008F44C2F4423F1F20E94B402CF911F91BD
S11306100F910895CF93DF93EC010E94B002CE01B5
S1130620880F991F0E94BC02DF91CF910895CF9348
S1130630DF93EC010E94AC02CE01880F991F0E9447
S1130640BC02DF91CF910895CF93DF93EC010E9418
S1130650A802CE010E94BC02DF91CF910895CF93EE
S1130660DF93EC010E94A402CE010E94BC02DF9140
S1130670CF910895EAE7F0E0108210927B0080E2C7
S113068080937C0080E880BF86E88083089588306A
S113069018F098E090937B008770806280937C00D0
S11306A0EAE7F0E0808180648083808184FFFDCF6D
S11306B080917900EAE7F0E0908190619083109254
S11306C07B00089586B1886088B9089586B1877FD4
S11306D088B90895E1E2F1E010828FEF809325015B
S11306E091E09093240110922901809328011092A3
S11306F02B0180932A0110922D0180932C0189EA09
S1130700809320018BE080830895E1E8F0E010827B
S11307108CEF8093850081E08093840093E0909334
S113072089008FEF8093880090938B0080938A00D8
S113073090938D0080938C00909387008093860023
S11307408BEA80938000109282008CE0808308956D
S11307501092D000E1EDF0E010828FE58093D40098
S11307601092D50088E18083E2EDF0E086E080839A
S11307708081877F80830895E0EDF0E0908195FF8C
S1130780FDCFE1EDF0E090819E7F90838093D600D1
S11307900895E0EDF0E080818823ECF78091D600A5
S11307A008958093280160932A010895BC0180E094
S11307B090E00E94D41125EE30ED4AEA50E40E9404
S11307C040110E94A811462F572F682F792F10929D
S11307D00C0210920D0210920E0210920F028091E0
S11307E00C0290910D02A0910E02B0910F024817D5
S11307F059076A077B0798F70E94B4020895CF93BC
S1130800DF93EC010E94B802CE010E94D603DF916F
S1130810CF910895CF93DF93EC010E94A002CE0103
S11308200E94D603DF91CF910895F8940E942B0281
S11308300E943A030E946A030E9485030E943E02BA
S11308400E9447020E94A80378940895CF93DF93EF
S1130850D82FC62F842F0E944703482F80937E02EF
S11308608D2F6C2F50E023E030E00E946D01DF916A
S1130870CF91089583E00E94470380930A0282E0A7
S11308800E9447038093090281E00E9447038093FA
S1130890080281E066E043E00E94260481E06AE009
S11308A042E00E94260481E06EE041E00E942604BA
S11308B008950F931F93CF93DF930E943A04C5E0EA
S11308C0D0E005E010E06BC00E943A0480910A0277
S11308D0803108F069C080910902803108F064C059
S11308E080910802803160F58091850290918602A2
S11308F08130910529F50A35110584F485E090E0ED
S11309000E942F030B5F1F4F8FEF9FE7A4E08150DE
S11309109040A040E1F700C0000041C0C536D105B9
S1130920F4F5259685E090E00E9424038FEF9FE77D
S1130930A4E081509040A040E1F700C000002FC027
S113094080910802803180F5809185029091860221
S11309508230910549F5CA35D1057CF485E090E0F3
S11309600E94240325968FEF9FE7A4E081509040D6
S1130970A040E1F700C0000012C0043611057CF469
S11309800B5F1F4F85E090E00E942F038FEF9FE7DE
S1130990A4E081509040A040E1F700C000008091A5
S11309A00902813108F490CFDF91CF911F910F910B
S11309B00895CF93DF93AC018091020290910302DA
S11309C0EA01C81BD90B509303024093020281E051
S11309D061E023E030E00E946D011C161D060CF559
S11309E021E0CE30D20779F48AE590E00E94240316
S11309F082E090E090938602809385020E94B40284
S1130A000E94590434C0CE010E942F0381E090E07B
S1130A1090938602809385020E94B4020E94590436
S1130A2026C0CE01DD2324F4882799278C1B9D0B37
S1130A30A1E08E309A0779F48AE590E00E942F03B2
S1130A4081E090E090938602809385020E94B40234
S1130A500E9459040CC00E94240382E090E0909309
S1130A608602809385020E94B4020E9459040E9467
S1130A70B4028FEF9FEFA1E181509040A040E1F7D5
S1130A8000C00000DF91CF910895EF92FF920F9381
S1130A901F93CF93C1E002E010E0EE24FF24E3941F
S1130AA00E943A0410920B0280910902873108F1E6
S1130AB090910A02953120F4909108029531C8F082
S1130AC00E9462038FEF9FE7A4E081509040A04012
S1130AD0E1F700C000000E94660388E290E00E94F3
S1130AE00A040E94B402CF911F910F91FF90EF90DE
S1130AF00895813108F046C090910802913168F55B
S1130B0020910A02213108F085C0281748F498176B
S1130B1038F40E94A00286E966E90E94D103C0CF9E
S1130B20891758F40E94A00280EA62E80E94D10367
S1130B301093860200938502B3CF821758F40E9463
S1130B40A00282E860EA0E94D103F0928602E09259
S1130B508502A6CF0E945904A3CF80910A02813155
S1130B6008F464C0891738F40E94A00288EC6AEA89
S1130B700E94D10395CF0E94A0028AEA68EC0E94E9
S1130B80D1038ECF80910802813170F480910A02E2
S1130B90813108F045C0C0930B020E94A00288EC8A
S1130BA068EC0E94D1037CCF80910A02813108F065
S1130BB077CF16C0C0930B020E94A0028AEA68ECA9
S1130BC00E94D1036DCFC0930B020E94A0028AEA57
S1130BD068EC0E94D103F0928602E092850260CF15
S1130BE0C0930B020E94A00288EC6AEA0E94D1031F
S1130BF0109386020093850253CFC0930B020E9488
S1130C00A00288EC6AEA0E94D10310938602009342
S1130C10850246CF80910A02813108F441CFD3CFB7
S1130C2080910A02813108F43BCFC4CF80910A023B
S1130C30813108F035CFE1CFEF92FF920F931F93EC
S1130C40CF93C1E002E010E0EE24FF24E3940E947D
S1130C503A0410920B02809109028731C8F09091F6
S1130C600A02953120F490910802953188F00E948F
S1130C70B4028FEF9FE7A4E081509040A040E1F7D9
S1130C8000C00000CF911F910F91FF90EF90089545
S1130C90813108F050C090910802913108F0C2C02F
S1130CA020910A02213108F073C0281740F49817E4
S1130CB030F40E94A00286E966E90E94D103909173
S1130CC0080280910902891730F40E94A00286E983
S1130CD064E60E94D10390910A0280910902891767
S1130CE038F40E94A00284E666E90E94D10302C09F
S1130CF00E945904809109028131E8F4909108021C
S1130D00913108F445C080910A02813108F440C051
S1130D10891738F40E94A00288EC66E90E94D10386
S1130D2006C00E94A00286E968EC0E94D10380916B
S1130D300902813168F180910802813108F040C0D4
S1130D4080910A02813180F4C0930B020E94A002B8
S1130D5088EC68EC0E94D103809109028131C0F0D3
S1130D6080910802813160F580910A02813140F15D
S1130D70C0930B020E94A00286E968EC0E94D10392
S1130D80F0928602E0928502809109028131C0F4DA
S1130D9080910802813178F580910A02813158F1FD
S1130DA0C0930B020E94A00286E968EC0E94D10362
S1130DB0F0928602E0928502809109028131D8F096
S1130DC080910802813108F442CF80910A02813176
S1130DD008F03DCFC0930B020E94A00288EC66E9A4
S1130DE00E94D10310938602009385028091090228
S1130DF0813108F02CCF80910802813108F427CF8B
S1130E0080910A02813108F022CFC0930B020E9424
S1130E10A00288EC66E90E94D10310938602009335
S1130E20850215CF909108026ECF8EE091E00E946A
S1130E30D9048FEF9FE7A6E181509040A040E1F7ED
S1130E4000C000000E94450540910602509107022F
S1130E504F5F5F4F509307024093060282E061E0C8
S1130E6021E030E00E946D0140910402509105029E
S1130E7082E063E021E030E00E946D01A6E6BEE07E
S1130E801197F1F700008091060290910702FC018E
S1130E90EE0FFF1FEE0FFF1FEE0FFF1FE81BF90BF6
S1130EA08091040290910502E80FF91FEE0FFF1FD5
S1130EB0EC5EFD4F81E090E09183808308958AE5A4
S1130EC090E00E94D9048FEF9FE7A6E18150904003
S1130ED0A040E1F700C000000E94450540910602D1
S1130EE0509107024150504050930702409306022C
S1130EF082E061E021E030E00E946D014091040253
S1130F005091050282E063E021E030E00E946D012F
S1130F10A6E6BEE01197F1F70000809106029091D9
S1130F200702FC01EE0FFF1FEE0FFF1FEE0FFF1F66
S1130F30E81BF90B8091040290910502E80FF91F58
S1130F40EE0FFF1FEC5EFD4F81E090E09183808304
S1130F50089580E090E00E94D9048FEF9FE7A6E116
S1130F6081509040A040E1F700C000000E94450578
S1130F70809104029091050201969093050280935A
S1130F800402409106025091070282E061E021E0F0
S1130F9030E00E946D01409104025091050282E00C
S1130FA063E021E030E00E946D01A6E6BEE0119707
S1130FB0F1F700008091060290910702FC01EE0F08
S1130FC0FF1FEE0FFF1FEE0FFF1FE81BF90B8091B1
S1130FD0040290910502E80FF91FEE0FFF1FEC5E6B
S1130FE0FD4F81E090E091838083089584EB90E04D
S1130FF00E94D9048FEF9FE7A6E181509040A04062
S1131000E1F700C000000E94450580910402909120
S11310100502019790930502809304024091060211
S11310205091070282E061E021E030E00E946D010E
S1131030409104025091050282E063E021E030E037
S11310400E946D01A6E6BEE01197F1F700008091C1
S1131050060290910702FC01EE0FFF1FEE0FFF1F27
S1131060EE0FFF1FE81BF90B80910402909105021B
S1131070E80FF91FEE0FFF1FEC5EFD4F81E090E0DB
S11310809183808308952F923F924F925F926F9243
S11310907F928F929F92BF92CF92DF92EF92FF92B4
S11310A00F931F93CF93DF93CDB7DEB72A970FB675
S11310B0F894DEBF0FBECDBF2C017E836D8380917B
S11310C000029091010298878F834C01CC24DD2487
S11310D036015A82498252C0E984FA84F7011183A5
S11310E0008373826282C801880D991D958384836D
S11310F029813A81201B310BA90122F44427552769
S1131100421B530B8C2D9B2D552014F48B819C81F9
S1131110840F951FF701918780871586148613869F
S11311201286229FB001239F700D329F700D1124EF
S1131130620D731D882777FD8095982F0E94D61124
S1131140DC01CB01F701808B918BA28BB38B0F5FFA
S11311501F4F89859A8584579F4F9A8789870730BF
S1131160110509F0B9CFE7E0F0E08E0E9F1E089458
S1131170611C711CF7E06F16710461F14D805E8093
S113118046185708449C1001459C300C549C300C64
S11311901124C301880F991F880F991F9C01220FE6
S11311A0331F220F331F820F931F0F2EF9E8EF2EE8
S11311B0F2E0FF2EF02DE80EF91E00E010E0C42C42
S11311C0B52C88279927841995099C838B83FA86E3
S11311D0E98682CF8F819885C1969093010280938E
S11311E000026091730670917406A9E8B2E0409120
S11311F05D0650915E06440F551F440F551F9A011A
S1131200220F331F220F331F240F351F4CE850E0E9
S1131210649FC001659F900D749F900D1124820FEF
S1131220931FFD01E80FF91F62E070E07587648782
S1131230E0917506F091760680915F0690916006C4
S1131240880F991F880F991F9C01220F331F220FAB
S1131250331F280F391FE49FC001E59F900DF49FB1
S1131260900D1124820F931FFD01E80FF91F75875C
S11312706487E0917706F0917806809161069091F9
S11312806206880F991F880F991F9C01220F331F34
S1131290220F331F280F391FE49FC001E59F900DD3
S11312A0F49F900D1124820F931FA80FB91F1D9650
S11312B07C936E931C972A960FB6F894DEBF0FBEEC
S11312C0CDBFDF91CF911F910F91FF90EF90DF90F1
S11312D0CF90BF909F908F907F906F905F904F9032
S11312E03F902F900895AC018730910508F046C0D7
S11312F06730710508F045C0CB01880F991F880F2E
S1131300991F9C01220F331F220F331FFC01E20F90
S1131310F31F8CE890E0489F9001499F300D589F3F
S1131320300D1124E20FF31FE757FD4F8485958597
S1131330009751F5CB01880F991F880F991F9C01C5
S1131340220F331F220F331F280F391F8CE890E020
S1131350489FB001499F700D589F700D1124620F72
S1131360731FFB01E757FD4F81E090E02285338531
S11313702115310559F080E090E0089580E090E077
S1131380089580E090E0089580E090E008952F9221
S11313903F924F925F926F927F929F92AF92BF92D1
S11313A0CF92DF92EF92FF920F931F93CF93DF932D
S11313B0CDB7DEB7C45BD0400FB6F894DEBF0FBE26
S11313C0CDBF1C01C0900602D090070286010150D7
S11313D01040E0900402F0900502C801B7010E9499
S11313E073098130910509F054C0C701880F991F12
S11313F0880F991FFC01EE0FFF1FEE0FFF1F9C01CA
S11314002E0F3F1F8CE890E0089FF001099FF00D1C
S1131410189FF00D1124E20FF31FDE011196E75718
S1131420FD4F84E101900D928150E1F7C701880FCF
S1131430991F880F991F9C01220F331F220F331FFE
S1131440280F391F8CE890E0089FF001099FF00DE8
S1131450189FF00D1124E20FF31FE757FD4F20856D
S113146031854089518962897389FE01EF5AFF4FA2
S1131470DE01119684E10D9001928150E1F76B96A3
S11314803FAF2EAF6B97A5964CAF5DAF6EAF7FAFFE
S1131490A597C801B7010E9473090097D1F4FE0112
S11314A0EF5AFF4FDE01119684E10D9001928150B5
S11314B0E1F788EC90E06B969FAF8EAF6B9780E07E
S11314C090E5A3E4B7E4A5968CAF9DAFAEAFBFAFF4
S11314D0A59786010F5F1F4FC801B7010E947309CA
S11314E08130910509F054C0C701880F991F880FF6
S11314F0991FFC01EE0FFF1FEE0FFF1F9C012E0F23
S11315003F1F8CE890E0089FF001099FF00D189FA1
S1131510F00D1124E20FF31FDE015596E757FD4F3E
S113152084E101900D928150E1F7C701880F991F62
S1131530880F991F9C01220F331F220F331F280F7E
S1131540391F8CE890E0089FF001099FF00D189F67
S1131550F00D1124E20FF31FE757FD4F208531856D
S11315604089518962897389FE01EB59FF4FDE017D
S1131570559684E10D9001928150E1F7AF963FAF0B
S11315802EAFAF97E9964CAF5DAF6EAF7FAFE997E3
S1131590C801B7010E9473090097D1F4FE01EB5909
S11315A0FF4FDE01559684E10D9001928150E1F7E1
S11315B088EC90E0AF969FAF8EAFAF9780E090E558
S11315C0A3E4B7E4E9968CAF9DAFAEAFBFAFE997A4
S11315D087010F5F1F4FC601B8010E947309813054
S11315E0910509F058C0C801880F991F880F991FE9
S11315F0FC01EE0FFF1FEE0FFF1F9C012E0F3F1F7C
S11316008CE890E0C89EF001C99EF00DD89EF00DC4
S11316101124E20FF31FDE019996E757FD4F84E191
S113162001900D928150E1F7C801880F991F880F2E
S1131630991F9C01220F331F220F331F280F391FBC
S11316408CE890E0C89EF001C99EF00DD89EF00D84
S11316501124E20FF31FE757FD4F208531854089A0
S1131660518962897389FE01E758FF4FDE0199961B
S113167084E10D9001928150E1F7CF57DF4F398318
S11316802883C158D040C757DF4F488359836A83A2
S11316907B83C958D040C601B8010E9473090097E2
S11316A0F1F4FE01E758FF4FDE01999684E10D90B5
S11316B001928150E1F788EC90E0CF57DF4F998396
S11316C08883C158D04080E090E5A3E4B7E4C757CD
S11316D0DF4F88839983AA83BB83C958D04087018D
S11316E001501040C601B8010E9473098130910570
S11316F009F05BC0C801880F991F880F991F9C01CE
S1131700220F331F220F331FFC01E20FF31F8CE85B
S113171090E0C89E9001C99E300DD89E300D1124D2
S11317202E0F3F1FDE01DD96F901E757FD4F84E1DF
S113173001900D928150E1F7C801880F991F880F1D
S1131740991F9C01220F331F220F331FFC01E20F4C
S1131750F31F8CE890E0C89E9001C99E300DD89E7E
S1131760300D11242E0F3F1FF901E757FD4F20853F
S113177031854089518962897389FE01E357FF4F9E
S1131780DE01DD9684E10D9001928150E1F7CB56A4
S1131790DF4F39832883C559D040C356DF4F488370
S11317A059836A837B83CD59D040C601B8010E9416
S11317B073090097F1F4DE01A357BF4FFE01FD96B4
S11317C084E101900D928150E1F788EC90E0CB56D2
S11317D0DF4F99838883C559D04080E090E5A3E426
S11317E0B7E4C356DF4F88839983AA83BB83CD595B
S11317F0D040DE01AF55BF4FFE01EF5AFF4F84E1E9
S113180001900D928150E1F76B96AEACBFAC6B9733
S1131810A5964CAC5DAC6EAC7FACA5978E010F5A0F
S11318201F4FEE24FF240F2EF4E19F2EF02DF8011C
S113183080859185A816B90664F1608971898289C9
S11318409389A30192010E943C11181614F1FE0120
S1131850EF55FF4FA02FB12F892D0D90019281508C
S1131860E1F7C701880F991F880F991F9C01220F68
S1131870331F220F331F820F931FE1E5F0E0EC0FBB
S1131880FD1FE80FF91FA084B18440885188628845
S113189073880894E11CF11C0C5E1F4FF4E0EF16F2
S11318A0F10429F6D101FE01EF55FF4F84E10190C7
S11318B00D928150E1F7F101B186A086408A518AE8
S11318C0628A738AC101CC54DF4F0FB6F894DEBF2D
S11318D00FBECDBFDF91CF911F910F91FF90EF907D
S11318E0DF90CF90BF90AF909F907F906F905F906C
S11318F04F903F902F900895EF92FF920F931F9374
S1131900CF93DF938C01EB01809106029091070243
S11319107801E81AF90A80910402909105029B016A
S1131920281B390B121613066CF486179707C1F09F
S11319300E94A90780910402909105028C179D07CB
S1131940B9F70EC0332364F48617970749F00E9451
S1131950F60780910402909105028C179D07B9F750
S11319601E141F048CF480910602909107028017C4
S11319709107E1F00E9415078091060290910702F9
S113198080179107B9F712C0FF2084F480910602F2
S1131990909107028017910749F00E945F07809198
S11319A006029091070280179107B9F7DF91CF9152
S11319B01F910F91FF90EF9008954F925F926F9255
S11319C07F928F929F92AF92BF92CF92DF92EF92CB
S11319D0FF920F931F93CF93DF93CDB7DEB7649736
S11319E00FB6F894DEBF0FBECDBF6C012B010E9471
S11319F043080F2EF9E8AF2EF2E0BF2EF02D0F2E84
S1131A00FCE88F2E9924F02D662477246394CE016C
S1131A1001960E94C70909811A81EB80FC80C801E4
S1131A20B7010E947C0CC701880F991F880F991F6A
S1131A309C01220F331F220F331F820F931F089D17
S1131A409001099D300D189D300D1124820F931FB4
S1131A508A0D9B1DFC017386628610930702009316
S1131A600602F0920502E0920402C016D10679F64D
S1131A704E145F0461F664960FB6F894DEBF0FBE91
S1131A80CDBFDF91CF911F910F91FF90EF90DF9029
S1131A90CF90BF90AF909F908F907F906F905F900A
S1131AA04F90089510928900682F70E080E090E0D4
S1131AB00E94D4112BE734E14EEE5FE30E94401103
S1131AC020E030E04CE052E40E94D8100E94A811BB
S1131AD060938800089510928B00682F70E080E076
S1131AE090E00E94D4112BE734E14EEE5FE30E94B4
S1131AF0401120E030E04CE052E40E94D8100E94F3
S1131B00A81160938A00089510928D00682F70E0E8
S1131B1080E090E00E94D4112BE734E14EEE5FE3C5
S1131B200E94401120E030E04CE052E40E94D810C2
S1131B300E94A81160938C0008958AE40E94520DBB
S1131B408FEF9FE7A4E081509040A040E1F700C0F0
S1131B50000085E70E946B0D8FEF9FE7A4E08150A2
S1131B609040A040E1F700C000008BE50E94520DB8
S1131B708FEF9FE7A4E081509040A040E1F700C0C0
S1131B80000081E70E946B0D8FEF9FEFA1E1815070
S1131B909040A040E1F700C0000080E00E94840D66
S1131BA08FEF9FE7ADE081509040A040E1F700C087
S1131BB000008AE40E94520D8FEF9FE7A4E0815059
S1131BC09040A040E1F700C0000085E70E946B0D43
S1131BD08FEF9FE7A4E081509040A040E1F700C060
S1131BE000008DE70E946B0D8FEF9FEFA8E08150FE
S1131BF09040A040E1F700C0000087E20E94520D2F
S1131C008FEF9FEFA8E081509040A040E1F700C023
S1131C100000089510926E0610926D0625E030E0E3
S1131C203093800220937F023093700620936F06D6
S1131C30309382022093810242E050E05093720676
S1131C40409371063093840220938302880F991F76
S1131C50FC01E359F94F81589D4FDC016D917C9152
S1131C60808191810E94DD0C80E090E00E94D90483
S1131C708FEF9FE7A6E181509040A040E1F700C0BC
S1131C8000000E941C060E949D0D84EB90E00E94BF
S1131C90D9048FEF9FE7A4E081509040A040E1F782
S1131CA000C000000E9459048FEF9FEFA8E081500C
S1131CB09040A040E1F700C000000E9445058FEF6E
S1131CC09FE7A4E081509040A040E1F700C00000ED
S1131CD008958FEF9FE7A4E081509040A040E1F782
S1131CE000C0000084E60E94840D8FEF9FEFA1E105
S1131CF081509040A040E1F700C00000809163064D
S1131D00909164068130910589F584E50E94520D15
S1131D108FEF9FE7A4E081509040A040E1F700C01E
S1131D2000008CE30E946B0D8FEF9FE7A4E08150CD
S1131D309040A040E1F700C0000086E50E94520DEB
S1131D408FEF9FE7A4E081509040A040E1F700C0EE
S1131D50000083E40E946B0D8FEF9FEFA8E0815099
S1131D609040A040E1F700C000001BC08230910504
S1131D70C1F484E60E94520D8FEF9FE7A4E08150E6
S1131D809040A040E1F700C000008EE30E946B0D7C
S1131D908FEF9FEFA8E081509040A040E1F700C092
S1131DA0000087E20E94520D8FEF9FE7A4E081506C
S1131DB09040A040E1F700C000008DE70E946B0D49
S1131DC08FEF9FE7A4E081509040A040E1F700C06E
S1131DD0000084E40E94BC030E94C903982F91531D
S1131DE09330B8F7813329F480E090E00E940A0E22
S1131DF00895823329F481E090E00E940A0E089548
S1131E00833321F482E090E00E940A0E089583E572
S1131E100E946B0D8FEF9FE7ADE081509040A04092
S1131E20E1F700C0000082E50E94520D8FEF9FE7AA
S1131E30ADE081509040A040E1F700C0000008955B
S1131E408AE50E946B0D8FEF9FE7ADE081509040D3
S1131E50A040E1F700C0000087E50E94520D8FEF1B
S1131E609FE7ADE081509040A040E1F700C0000042
S1131E7008954F925F926F927F928F929F92AF924A
S1131E80BF92CF92DF92EF92FF920F931F93CF9363
S1131E90DF93CDB7DEB760970FB6F894DEBF0FBE01
S1131EA0CDBF9C01215030403A8329837A876987CA
S1131EB09C838B839B012F5F3F4F3C872B879C0127
S1131EC02F5F3F4F3E832D837E876D8798878F8357
S1131ED061507040788B6F877E010894E11CF11C7F
S1131EE00F2EF9E0CF2EDD24F02DCC0EDD1E00E008
S1131EF010E00F2EF9E8AF2EF2E0BF2EF02D0F2EDA
S1131F00FCE88F2E9924F02D6624772463944424CE
S1131F105524689441F887E20E94520D8DE70E948F
S1131F206B0D80E00E94840DD7014D915D917D0180
S1131F30F601619171916F01CB01880F991F880F90
S1131F40991F9C01220F331F220F331F820F931FEF
S1131F50489D9001499D300D589D300D1124820FEC
S1131F60931F8A0D9B1DDC011C968D919C911D97DE
S1131F708230910551F0552344F0473051052CF43B
S1131F8077231CF0673071051CF00E94B40292C0E4
S1131F90CA010E94DD0C0115110529F480E090E0CE
S1131FA00E94D90410C00130110529F48EE091E09B
S1131FB00E94D9040FC00230110529F484EB90E08B
S1131FC00E94D90407C00330110521F48AE590E08A
S1131FD00E94D9048FEF9FE7A4E081509040A04075
S1131FE0E1F700C000000E9459040E9462038FEFD1
S1131FF09FE7A4E081509040A040E1F700C00000BA
S11320000E9466030E94070F82E50E94BC030E949F
S1132010C903893331F0823309F44CC08733A1F703
S113202050C08CE30E946B0D8FEF9FEFA8E08150AE
S11320309040A040E1F700C0000080E60E94520DED
S11320408FEF9FEFA8E081509040A040E1F700C0DF
S1132050000070926406609263060E94690E2AC0B2
S113206082E50E94BC030E94C903893329F08233AC
S113207009F18733A9F71EC08FE30E946B0D8FEF20
S11320809FEFA8E081509040A040E1F700C000001D
S11320908FE50E94520D8FEF9FEFA8E08150904092
S11320A0A040E1F700C0000050926406409263062D
S11320B00E94690E0F5F1F4F0430110509F02BCFEA
S11320C003C00E94200FCCCF60960FB6F894DEBFF9
S11320D00FBECDBFDF91CF911F910F91FF90EF9075
S11320E0DF90CF90BF90AF909F908F907F906F9034
S11320F05F904F90089522E030E03093740620936F
S1132100730641E050E050935E0640935D065093A1
S113211076064093750644E050E050936006409381
S11321205F065093780640937706309362062093B7
S11321306106880F991FFC01ED58F94F835A994F96
S1132140DC016D917C91808191810E94390F089509
S11321500E9415040E9496000E94FE0010E0D0E048
S1132160EE240E94C9038C3669F0823769F08837FF
S113217069F0893769F0CC0F9C2F990F990FC90F1B
S1132180C80FEFCFDC2F05C01C2F03C00C2F01C0DC
S1132190FC2E0E94A0028D2F612F0E94D103802F5C
S11321A00E94520D8F2D0E946B0DCE2DDACF505808
S11321B0BB27AA270ED070C161D130F066D120F0C0
S11321C031F49F3F11F41EF456C10EF4E095E7FB81
S11321D04CC1E92F72D180F3BA17620773078407E1
S11321E0950718F071F49EF58AC10EF4E0950B2E54
S11321F0BA2FA02D0B01B90190010C01CA01A00155
S11322001124FF27591B99F0593F50F4503E68F1AF
S11322101A16F040A22F232F342F4427585FF3CFF0
S1132220469537952795A795F0405395C9F77EF4C1
S11322301F16BA0B620B730B840BBAF09150A1F00A
S1132240FF0FBB1F661F771F881FC2F70EC0BA0F90
S1132250621F731F841F48F4879577956795B79518
S1132260F7959E3F08F0B3CF9395880F08F0992710
S1132270EE0F979587950895D4D008F481E00895DA
S11322800CD00AC102D140F0F9D030F021F45F3F04
S113229019F0EBC0511134C1EEC00FD198F399235A
S11322A0C9F35523B1F3951B550BBB27AA27621716
S11322B07307840738F09F5F5F4F220F331F441F5B
S11322C0AA1FA9F333D00E2E3AF0E0E830D0915093
S11322D05040E695001CCAF729D0FE2F27D0660F80
S11322E0771F881FBB1F261737074807AB07B0E8BF
S11322F009F0BB0B802DBF01FF2793585F4F2AF0D5
S11323009E3F510568F0B1C0FBC05F3FECF3983EBF
S1132310DCF3869577956795B795F7959F5FC9F731
S1132320880F911D9695879597F90895E1E0660FBA
S1132330771F881FBB1F621773078407BA0720F033
S1132340621B730B840BBA0BEE1F88F7E09508959C
S1132350BCD088F09F5790F0B92F9927B751A0F0BF
S1132360D1F0660F771F881F991F1AF0BA95C9F725
S113237012C0B13081F0C3D0B1E00895C0C0672F5E
S1132380782F8827B85F39F0B93FCCF386957795D5
S11323906795B395D9F73EF49095809570956195BE
S11323A07F4F8F4F9F4F0895E89409C097FB3EF4E9
S11323B090958095709561957F4F8F4F9F4F99238E
S11323C0A9F0F92F96E9BB279395F695879577950C
S11323D06795B795F111F8CFFAF4BB0F11F460FFCC
S11323E01BC06F5F7F4F8F4F9F4F16C0882311F024
S11323F096E911C0772321F09EE8872F762F05C038
S1132400662371F096E8862F70E060E02AF09A95D2
S1132410660F771F881FDAF7880F9695879597F9C7
S11324200895990F0008550FAA0BE0E8FEEF161661
S11324301706E807F907C0F012161306E407F507B4
S113244098F0621B730B840B950B39F40A2661F028
S1132450232B242B252B21F408950A2609F4A140CB
S1132460A6958FEF811D811D089597F99F6780E8D8
S113247070E060E008959FEF80EC089500240A94D2
S11324801616170618060906089500240A9412164B
S11324901306140605060895092E0394000C11F47E
S11324A0882352F0BB0F40F4BF2B11F460FF04C02B
S11324B06F5F7F4F8F4F9F4F089557FD9058440F84
S11324C0551F59F05F3F71F04795880F97FB991F8F
S11324D061F09F3F79F0879508951216130614064C
S11324E0551FF2CF4695F1DF08C0161617061806D9
S11324F0991FF1CF86957105610508940895E894B4
S1132500BB2766277727CB0197F90895AA1BBB1B26
S113251051E107C0AA1FBB1FA617B70710F0A61BDF
S1132520B70B881F991F5A95A9F780959095BC0100
S10B2530CD010895F894FFCFDA
S9030000FC
